{
  "_format": "hh-sol-artifact-1",
  "contractName": "MarshaPlus",
  "sourceName": "contracts/MarshaPlus.sol",
  "abi": [
    {
      "inputs": [],
      "stateMutability": "nonpayable",
      "type": "constructor"
    },
    {
      "anonymous": false,
      "inputs": [
        {
          "indexed": true,
          "internalType": "address",
          "name": "from",
          "type": "address"
        },
        {
          "indexed": true,
          "internalType": "address",
          "name": "to",
          "type": "address"
        },
        {
          "indexed": false,
          "internalType": "uint256",
          "name": "value",
          "type": "uint256"
        }
      ],
      "name": "Transfer",
      "type": "event"
    },
    {
      "inputs": [],
      "name": "advisor",
      "outputs": [
        {
          "internalType": "address",
          "name": "",
          "type": "address"
        }
      ],
      "stateMutability": "view",
      "type": "function"
    },
    {
      "inputs": [
        {
          "internalType": "address",
          "name": "",
          "type": "address"
        }
      ],
      "name": "balanceOf",
      "outputs": [
        {
          "internalType": "uint256",
          "name": "",
          "type": "uint256"
        }
      ],
      "stateMutability": "view",
      "type": "function"
    },
    {
      "inputs": [],
      "name": "community",
      "outputs": [
        {
          "internalType": "address",
          "name": "",
          "type": "address"
        }
      ],
      "stateMutability": "view",
      "type": "function"
    },
    {
      "inputs": [],
      "name": "decimals",
      "outputs": [
        {
          "internalType": "uint8",
          "name": "",
          "type": "uint8"
        }
      ],
      "stateMutability": "view",
      "type": "function"
    },
    {
      "inputs": [
        {
          "internalType": "uint256",
          "name": "_tokens",
          "type": "uint256"
        },
        {
          "internalType": "string",
          "name": "period",
          "type": "string"
        }
      ],
      "name": "depositTokenToStaking",
      "outputs": [
        {
          "internalType": "bool",
          "name": "",
          "type": "bool"
        }
      ],
      "stateMutability": "nonpayable",
      "type": "function"
    },
    {
      "inputs": [],
      "name": "developer",
      "outputs": [
        {
          "internalType": "address",
          "name": "",
          "type": "address"
        }
      ],
      "stateMutability": "view",
      "type": "function"
    },
    {
      "inputs": [],
      "name": "foundation",
      "outputs": [
        {
          "internalType": "address",
          "name": "",
          "type": "address"
        }
      ],
      "stateMutability": "view",
      "type": "function"
    },
    {
      "inputs": [],
      "name": "marketing",
      "outputs": [
        {
          "internalType": "address",
          "name": "",
          "type": "address"
        }
      ],
      "stateMutability": "view",
      "type": "function"
    },
    {
      "inputs": [],
      "name": "owner",
      "outputs": [
        {
          "internalType": "address payable",
          "name": "",
          "type": "address"
        }
      ],
      "stateMutability": "view",
      "type": "function"
    },
    {
      "inputs": [
        {
          "internalType": "address",
          "name": "",
          "type": "address"
        },
        {
          "internalType": "string",
          "name": "",
          "type": "string"
        }
      ],
      "name": "stakingByPeriod",
      "outputs": [
        {
          "internalType": "uint256",
          "name": "date",
          "type": "uint256"
        },
        {
          "internalType": "uint256",
          "name": "tokens",
          "type": "uint256"
        }
      ],
      "stateMutability": "view",
      "type": "function"
    },
    {
      "inputs": [],
      "name": "technical",
      "outputs": [
        {
          "internalType": "address",
          "name": "",
          "type": "address"
        }
      ],
      "stateMutability": "view",
      "type": "function"
    },
    {
      "inputs": [],
      "name": "token_name",
      "outputs": [
        {
          "internalType": "string",
          "name": "",
          "type": "string"
        }
      ],
      "stateMutability": "view",
      "type": "function"
    },
    {
      "inputs": [],
      "name": "token_symbol",
      "outputs": [
        {
          "internalType": "string",
          "name": "",
          "type": "string"
        }
      ],
      "stateMutability": "view",
      "type": "function"
    },
    {
      "inputs": [],
      "name": "totalSupply",
      "outputs": [
        {
          "internalType": "uint256",
          "name": "",
          "type": "uint256"
        }
      ],
      "stateMutability": "view",
      "type": "function"
    },
    {
      "inputs": [
        {
          "internalType": "address",
          "name": "_to",
          "type": "address"
        },
        {
          "internalType": "uint256",
          "name": "_value",
          "type": "uint256"
        }
      ],
      "name": "transferTo",
      "outputs": [
        {
          "internalType": "bool",
          "name": "success",
          "type": "bool"
        }
      ],
      "stateMutability": "nonpayable",
      "type": "function"
    },
    {
      "inputs": [
        {
          "internalType": "string",
          "name": "period",
          "type": "string"
        }
      ],
      "name": "withdrawTokenFromStaking",
      "outputs": [
        {
          "internalType": "bool",
          "name": "",
          "type": "bool"
        }
      ],
      "stateMutability": "nonpayable",
      "type": "function"
    }
  ],
  "bytecode": "0x60806040526040518060400160405280600781526020017f4d41525348412b00000000000000000000000000000000000000000000000000815250600090816200004a9190620006cc565b506040518060400160405280600381526020017f4d5241000000000000000000000000000000000000000000000000000000000081525060019081620000919190620006cc565b5060646002556012600360006101000a81548160ff021916908360ff160217905550348015620000c057600080fd5b504260048190555060646023600254620000db9190620007e2565b620000e791906200085c565b6005600073f39fd6e51aad88f6f4ce6ab8827279cfffb9226673ffffffffffffffffffffffffffffffffffffffff1673ffffffffffffffffffffffffffffffffffffffff1681526020019081526020016000208190555073f39fd6e51aad88f6f4ce6ab8827279cfffb9226673ffffffffffffffffffffffffffffffffffffffff163373ffffffffffffffffffffffffffffffffffffffff167fddf252ad1be2c89b69c2b068fc378daa952ba7f163c4a11628f55a4df523b3ef6005600073f39fd6e51aad88f6f4ce6ab8827279cfffb9226673ffffffffffffffffffffffffffffffffffffffff1673ffffffffffffffffffffffffffffffffffffffff16815260200190815260200160002054604051620002049190620008a5565b60405180910390a3606460196002546200021f9190620007e2565b6200022b91906200085c565b600560007370997970c51812dc3a010c7d01b50e0d17dc79c873ffffffffffffffffffffffffffffffffffffffff1673ffffffffffffffffffffffffffffffffffffffff1681526020019081526020016000208190555060646008600254620002959190620007e2565b620002a191906200085c565b60056000733c44cdddb6a900fa2b585dd299e03d12fa4293bc73ffffffffffffffffffffffffffffffffffffffff1673ffffffffffffffffffffffffffffffffffffffff1681526020019081526020016000208190555060146002546200030991906200085c565b600560007390f79bf6eb2c4f870365e785982e1f101e93b90673ffffffffffffffffffffffffffffffffffffffff1673ffffffffffffffffffffffffffffffffffffffff168152602001908152602001600020819055506064600a600254620003739190620007e2565b6200037f91906200085c565b600560007315d34aaf54267db7d7c367839aaf71a00a2c6a6573ffffffffffffffffffffffffffffffffffffffff1673ffffffffffffffffffffffffffffffffffffffff1681526020019081526020016000208190555060646005600254620003e99190620007e2565b620003f591906200085c565b60056000739965507d1a55bcc2695c58ba16fb37d819b0a4dc73ffffffffffffffffffffffffffffffffffffffff1673ffffffffffffffffffffffffffffffffffffffff16815260200190815260200160002081905550620008c2565b600081519050919050565b7f4e487b7100000000000000000000000000000000000000000000000000000000600052604160045260246000fd5b7f4e487b7100000000000000000000000000000000000000000000000000000000600052602260045260246000fd5b60006002820490506001821680620004d457607f821691505b602082108103620004ea57620004e96200048c565b5b50919050565b60008190508160005260206000209050919050565b60006020601f8301049050919050565b600082821b905092915050565b600060088302620005547fffffffffffffffffffffffffffffffffffffffffffffffffffffffffffffffff8262000515565b62000560868362000515565b95508019841693508086168417925050509392505050565b6000819050919050565b6000819050919050565b6000620005ad620005a7620005a18462000578565b62000582565b62000578565b9050919050565b6000819050919050565b620005c9836200058c565b620005e1620005d882620005b4565b84845462000522565b825550505050565b600090565b620005f8620005e9565b62000605818484620005be565b505050565b5b818110156200062d5762000621600082620005ee565b6001810190506200060b565b5050565b601f8211156200067c576200064681620004f0565b620006518462000505565b8101602085101562000661578190505b62000679620006708562000505565b8301826200060a565b50505b505050565b600082821c905092915050565b6000620006a16000198460080262000681565b1980831691505092915050565b6000620006bc83836200068e565b9150826002028217905092915050565b620006d78262000452565b67ffffffffffffffff811115620006f357620006f26200045d565b5b620006ff8254620004bb565b6200070c82828562000631565b600060209050601f8311600181146200074457600084156200072f578287015190505b6200073b8582620006ae565b865550620007ab565b601f1984166200075486620004f0565b60005b828110156200077e5784890151825560018201915060208501945060208101905062000757565b868310156200079e57848901516200079a601f8916826200068e565b8355505b6001600288020188555050505b505050505050565b7f4e487b7100000000000000000000000000000000000000000000000000000000600052601160045260246000fd5b6000620007ef8262000578565b9150620007fc8362000578565b92508282026200080c8162000578565b91508282048414831517620008265762000825620007b3565b5b5092915050565b7f4e487b7100000000000000000000000000000000000000000000000000000000600052601260045260246000fd5b6000620008698262000578565b9150620008768362000578565b9250826200088957620008886200082d565b5b828204905092915050565b6200089f8162000578565b82525050565b6000602082019050620008bc600083018462000894565b92915050565b6121de80620008d26000396000f3fe608060405234801561001057600080fd5b50600436106101005760003560e01c806370a0823111610097578063ca4b208b11610066578063ca4b208b146102a4578063cca38ab9146102c2578063dc1fb5a5146102f2578063fe723c5f1461031057610100565b806370a082311461021a5780638da5cb5b1461024a578063947a3168146102685780639d8a49651461028657610100565b80632ccb1b30116100d35780632ccb1b30146101905780632d3e474a146101c0578063313ce567146101de57806341fbb050146101fc57610100565b806318160ddd146101055780631936e4be1461012357806319d7e1e6146101415780631f772a3414610172575b600080fd5b61010d610340565b60405161011a9190611628565b60405180910390f35b61012b610346565b6040516101389190611684565b60405180910390f35b61015b60048036038101906101569190611825565b61035e565b604051610169929190611881565b60405180910390f35b61017a6103a5565b6040516101879190611929565b60405180910390f35b6101aa60048036038101906101a59190611977565b610433565b6040516101b791906119d2565b60405180910390f35b6101c8610745565b6040516101d59190611684565b60405180910390f35b6101e661075d565b6040516101f39190611a09565b60405180910390f35b610204610770565b6040516102119190611684565b60405180910390f35b610234600480360381019061022f9190611a24565b610788565b6040516102419190611628565b60405180910390f35b6102526107a0565b60405161025f9190611a72565b60405180910390f35b6102706107c6565b60405161027d9190611929565b60405180910390f35b61028e610854565b60405161029b9190611684565b60405180910390f35b6102ac61086c565b6040516102b99190611684565b60405180910390f35b6102dc60048036038101906102d79190611a8d565b610884565b6040516102e991906119d2565b60405180910390f35b6102fa610d93565b6040516103079190611684565b60405180910390f35b61032a60048036038101906103259190611ad6565b610dab565b60405161033791906119d2565b60405180910390f35b60025481565b7390f79bf6eb2c4f870365e785982e1f101e93b90681565b600860205281600052604060002081805160208101820180518482526020830160208501208183528095505050505050600091509150508060000154908060010154905082565b600180546103b290611b61565b80601f01602080910402602001604051908101604052809291908181526020018280546103de90611b61565b801561042b5780601f106104005761010080835404028352916020019161042b565b820191906000526020600020905b81548152906001019060200180831161040e57829003601f168201915b505050505081565b600080600560003373ffffffffffffffffffffffffffffffffffffffff1673ffffffffffffffffffffffffffffffffffffffff1681526020019081526020016000205490506000600560008673ffffffffffffffffffffffffffffffffffffffff1673ffffffffffffffffffffffffffffffffffffffff168152602001908152602001600020549050600073ffffffffffffffffffffffffffffffffffffffff168573ffffffffffffffffffffffffffffffffffffffff160361052b576040517f08c379a000000000000000000000000000000000000000000000000000000000815260040161052290611bde565b60405180910390fd5b3373ffffffffffffffffffffffffffffffffffffffff168573ffffffffffffffffffffffffffffffffffffffff1603610599576040517f08c379a000000000000000000000000000000000000000000000000000000000815260040161059090611bde565b60405180910390fd5b60008410156105dd576040517f08c379a00000000000000000000000000000000000000000000000000000000081526004016105d490611c70565b60405180910390fd5b83821161061f576040517f08c379a000000000000000000000000000000000000000000000000000000000815260040161061690611cdc565b60405180910390fd5b61063284836111d390919063ffffffff16565b600560003373ffffffffffffffffffffffffffffffffffffffff1673ffffffffffffffffffffffffffffffffffffffff16815260200190815260200160002081905550610688848261121d90919063ffffffff16565b600560008773ffffffffffffffffffffffffffffffffffffffff1673ffffffffffffffffffffffffffffffffffffffff168152602001908152602001600020819055508473ffffffffffffffffffffffffffffffffffffffff163373ffffffffffffffffffffffffffffffffffffffff167fddf252ad1be2c89b69c2b068fc378daa952ba7f163c4a11628f55a4df523b3ef866040516107289190611628565b60405180910390a361073861127b565b5060019250505092915050565b733c44cdddb6a900fa2b585dd299e03d12fa4293bc81565b600360009054906101000a900460ff1681565b7370997970c51812dc3a010c7d01b50e0d17dc79c881565b60056020528060005260406000206000915090505481565b600360019054906101000a900473ffffffffffffffffffffffffffffffffffffffff1681565b600080546107d390611b61565b80601f01602080910402602001604051908101604052809291908181526020018280546107ff90611b61565b801561084c5780601f106108215761010080835404028352916020019161084c565b820191906000526020600020905b81548152906001019060200180831161082f57829003601f168201915b505050505081565b739965507d1a55bcc2695c58ba16fb37d819b0a4dc81565b7315d34aaf54267db7d7c367839aaf71a00a2c6a6581565b60008060079050600061091460646109068460ff16600860003373ffffffffffffffffffffffffffffffffffffffff1673ffffffffffffffffffffffffffffffffffffffff168152602001908152602001600020886040516108e69190611d38565b90815260200160405180910390206001015461148490919063ffffffff16565b6114fe90919063ffffffff16565b90506040518060400160405280600981526020017f48414c465f59454152000000000000000000000000000000000000000000000081525080519060200120848051906020012014806109a957506040518060400160405280600481526020017f5945415200000000000000000000000000000000000000000000000000000000815250805190602001208480519060200120145b806109f657506040518060400160405280600d81526020017f594541525f414e445f48414c4600000000000000000000000000000000000000815250805190602001208480519060200120145b610a35576040517f08c379a0000000000000000000000000000000000000000000000000000000008152600401610a2c90611dc1565b60405180910390fd5b610aa7600a600860003373ffffffffffffffffffffffffffffffffffffffff1673ffffffffffffffffffffffffffffffffffffffff16815260200190815260200160002086604051610a879190611d38565b90815260200160405180910390206000015461121d90919063ffffffff16565b4211610ae8576040517f08c379a0000000000000000000000000000000000000000000000000000000008152600401610adf90611e53565b60405180910390fd5b610bbe81610bb0600860003373ffffffffffffffffffffffffffffffffffffffff1673ffffffffffffffffffffffffffffffffffffffff16815260200190815260200160002087604051610b3c9190611d38565b9081526020016040518091039020600101546005600073f39fd6e51aad88f6f4ce6ab8827279cfffb9226673ffffffffffffffffffffffffffffffffffffffff1673ffffffffffffffffffffffffffffffffffffffff168152602001908152602001600020546111d390919063ffffffff16565b6111d390919063ffffffff16565b6005600073f39fd6e51aad88f6f4ce6ab8827279cfffb9226673ffffffffffffffffffffffffffffffffffffffff1673ffffffffffffffffffffffffffffffffffffffff16815260200190815260200160002081905550610cd781610cc9600860003373ffffffffffffffffffffffffffffffffffffffff1673ffffffffffffffffffffffffffffffffffffffff16815260200190815260200160002087604051610c699190611d38565b908152602001604051809103902060010154600560003373ffffffffffffffffffffffffffffffffffffffff1673ffffffffffffffffffffffffffffffffffffffff1681526020019081526020016000205461121d90919063ffffffff16565b61121d90919063ffffffff16565b600560003373ffffffffffffffffffffffffffffffffffffffff1673ffffffffffffffffffffffffffffffffffffffff16815260200190815260200160002081905550600860003373ffffffffffffffffffffffffffffffffffffffff1673ffffffffffffffffffffffffffffffffffffffff16815260200190815260200160002084604051610d679190611d38565b908152602001604051809103902060008082016000905560018201600090555050600192505050919050565b73f39fd6e51aad88f6f4ce6ab8827279cfffb9226681565b600082600560003373ffffffffffffffffffffffffffffffffffffffff1673ffffffffffffffffffffffffffffffffffffffff168152602001908152602001600020541015610e2f576040517f08c379a0000000000000000000000000000000000000000000000000000000008152600401610e2690611ebf565b60405180910390fd5b6000600860003373ffffffffffffffffffffffffffffffffffffffff1673ffffffffffffffffffffffffffffffffffffffff16815260200190815260200160002083604051610e7e9190611d38565b9081526020016040518091039020600101541115610ed1576040517f08c379a0000000000000000000000000000000000000000000000000000000008152600401610ec890611f51565b60405180910390fd5b6040518060400160405280600981526020017f48414c465f5945415200000000000000000000000000000000000000000000008152508051906020012082805190602001201480610f6457506040518060400160405280600481526020017f5945415200000000000000000000000000000000000000000000000000000000815250805190602001208280519060200120145b80610fb157506040518060400160405280600d81526020017f594541525f414e445f48414c4600000000000000000000000000000000000000815250805190602001208280519060200120145b610ff0576040517f08c379a0000000000000000000000000000000000000000000000000000000008152600401610fe790611dc1565b60405180910390fd5b61104283600560003373ffffffffffffffffffffffffffffffffffffffff1673ffffffffffffffffffffffffffffffffffffffff168152602001908152602001600020546111d390919063ffffffff16565b600560003373ffffffffffffffffffffffffffffffffffffffff1673ffffffffffffffffffffffffffffffffffffffff16815260200190815260200160002081905550604051806040016040528042815260200184815250600860003373ffffffffffffffffffffffffffffffffffffffff1673ffffffffffffffffffffffffffffffffffffffff168152602001908152602001600020836040516110e79190611d38565b90815260200160405180910390206000820151816000015560208201518160010155905050611172836005600073f39fd6e51aad88f6f4ce6ab8827279cfffb9226673ffffffffffffffffffffffffffffffffffffffff1673ffffffffffffffffffffffffffffffffffffffff1681526020019081526020016000205461121d90919063ffffffff16565b6005600073f39fd6e51aad88f6f4ce6ab8827279cfffb9226673ffffffffffffffffffffffffffffffffffffffff1673ffffffffffffffffffffffffffffffffffffffff168152602001908152602001600020819055506001905092915050565b600061121583836040518060400160405280601e81526020017f536166654d6174683a207375627472616374696f6e206f766572666c6f770000815250611548565b905092915050565b600080828461122c9190611fa0565b905083811015611271576040517f08c379a000000000000000000000000000000000000000000000000000000000815260040161126890612020565b60405180910390fd5b8091505092915050565b6000806112a76064611299600360025461148490919063ffffffff16565b6114fe90919063ffffffff16565b90506112bd600a4261121d90919063ffffffff16565b4211801561131d5750806005600073f39fd6e51aad88f6f4ce6ab8827279cfffb9226673ffffffffffffffffffffffffffffffffffffffff1673ffffffffffffffffffffffffffffffffffffffff16815260200190815260200160002054115b1561147c57611388816005600073f39fd6e51aad88f6f4ce6ab8827279cfffb9226673ffffffffffffffffffffffffffffffffffffffff1673ffffffffffffffffffffffffffffffffffffffff168152602001908152602001600020546111d390919063ffffffff16565b6005600073f39fd6e51aad88f6f4ce6ab8827279cfffb9226673ffffffffffffffffffffffffffffffffffffffff1673ffffffffffffffffffffffffffffffffffffffff168152602001908152602001600020819055506113f4816002546111d390919063ffffffff16565b600281905550600073ffffffffffffffffffffffffffffffffffffffff1673f39fd6e51aad88f6f4ce6ab8827279cfffb9226673ffffffffffffffffffffffffffffffffffffffff167fddf252ad1be2c89b69c2b068fc378daa952ba7f163c4a11628f55a4df523b3ef8360405161146c9190611628565b60405180910390a3426004819055505b600191505090565b600080830361149657600090506114f8565b600082846114a49190612040565b90508284826114b391906120b1565b146114f3576040517f08c379a00000000000000000000000000000000000000000000000000000000081526004016114ea90612154565b60405180910390fd5b809150505b92915050565b600061154083836040518060400160405280601a81526020017f536166654d6174683a206469766973696f6e206279207a65726f0000000000008152506115ac565b905092915050565b6000838311158290611590576040517f08c379a00000000000000000000000000000000000000000000000000000000081526004016115879190611929565b60405180910390fd5b506000838561159f9190612174565b9050809150509392505050565b600080831182906115f3576040517f08c379a00000000000000000000000000000000000000000000000000000000081526004016115ea9190611929565b60405180910390fd5b506000838561160291906120b1565b9050809150509392505050565b6000819050919050565b6116228161160f565b82525050565b600060208201905061163d6000830184611619565b92915050565b600073ffffffffffffffffffffffffffffffffffffffff82169050919050565b600061166e82611643565b9050919050565b61167e81611663565b82525050565b60006020820190506116996000830184611675565b92915050565b6000604051905090565b600080fd5b600080fd5b6116bc81611663565b81146116c757600080fd5b50565b6000813590506116d9816116b3565b92915050565b600080fd5b600080fd5b6000601f19601f8301169050919050565b7f4e487b7100000000000000000000000000000000000000000000000000000000600052604160045260246000fd5b611732826116e9565b810181811067ffffffffffffffff82111715611751576117506116fa565b5b80604052505050565b600061176461169f565b90506117708282611729565b919050565b600067ffffffffffffffff8211156117905761178f6116fa565b5b611799826116e9565b9050602081019050919050565b82818337600083830152505050565b60006117c86117c384611775565b61175a565b9050828152602081018484840111156117e4576117e36116e4565b5b6117ef8482856117a6565b509392505050565b600082601f83011261180c5761180b6116df565b5b813561181c8482602086016117b5565b91505092915050565b6000806040838503121561183c5761183b6116a9565b5b600061184a858286016116ca565b925050602083013567ffffffffffffffff81111561186b5761186a6116ae565b5b611877858286016117f7565b9150509250929050565b60006040820190506118966000830185611619565b6118a36020830184611619565b9392505050565b600081519050919050565b600082825260208201905092915050565b60005b838110156118e45780820151818401526020810190506118c9565b60008484015250505050565b60006118fb826118aa565b61190581856118b5565b93506119158185602086016118c6565b61191e816116e9565b840191505092915050565b6000602082019050818103600083015261194381846118f0565b905092915050565b6119548161160f565b811461195f57600080fd5b50565b6000813590506119718161194b565b92915050565b6000806040838503121561198e5761198d6116a9565b5b600061199c858286016116ca565b92505060206119ad85828601611962565b9150509250929050565b60008115159050919050565b6119cc816119b7565b82525050565b60006020820190506119e760008301846119c3565b92915050565b600060ff82169050919050565b611a03816119ed565b82525050565b6000602082019050611a1e60008301846119fa565b92915050565b600060208284031215611a3a57611a396116a9565b5b6000611a48848285016116ca565b91505092915050565b6000611a5c82611643565b9050919050565b611a6c81611a51565b82525050565b6000602082019050611a876000830184611a63565b92915050565b600060208284031215611aa357611aa26116a9565b5b600082013567ffffffffffffffff811115611ac157611ac06116ae565b5b611acd848285016117f7565b91505092915050565b60008060408385031215611aed57611aec6116a9565b5b6000611afb85828601611962565b925050602083013567ffffffffffffffff811115611b1c57611b1b6116ae565b5b611b28858286016117f7565b9150509250929050565b7f4e487b7100000000000000000000000000000000000000000000000000000000600052602260045260246000fd5b60006002820490506001821680611b7957607f821691505b602082108103611b8c57611b8b611b32565b5b50919050565b7f5265636569766572206164647265737320696e76616c69640000000000000000600082015250565b6000611bc86018836118b5565b9150611bd382611b92565b602082019050919050565b60006020820190508181036000830152611bf781611bbb565b9050919050565b7f56616c7565206d7573742062652067726561746572206f7220657175616c207460008201527f6f20300000000000000000000000000000000000000000000000000000000000602082015250565b6000611c5a6023836118b5565b9150611c6582611bfe565b604082019050919050565b60006020820190508181036000830152611c8981611c4d565b9050919050565b7f4e6f7420656e6f7567682062616c616e63650000000000000000000000000000600082015250565b6000611cc66012836118b5565b9150611cd182611c90565b602082019050919050565b60006020820190508181036000830152611cf581611cb9565b9050919050565b600081905092915050565b6000611d12826118aa565b611d1c8185611cfc565b9350611d2c8185602086016118c6565b80840191505092915050565b6000611d448284611d07565b915081905092915050565b7f506572696f64206d7573742062652048414c465f594541522c2059454152206f60008201527f7220594541525f414e445f48414c460000000000000000000000000000000000602082015250565b6000611dab602f836118b5565b9150611db682611d4f565b604082019050919050565b60006020820190508181036000830152611dda81611d9e565b9050919050565b7f4e6f7420656e6f7567682074696d65207061737320666f72207769746864726160008201527f77207374616b696e670000000000000000000000000000000000000000000000602082015250565b6000611e3d6029836118b5565b9150611e4882611de1565b604082019050919050565b60006020820190508181036000830152611e6c81611e30565b9050919050565b7f596f752068617665206e6f7420656e6f75676820746f6b656e73000000000000600082015250565b6000611ea9601a836118b5565b9150611eb482611e73565b602082019050919050565b60006020820190508181036000830152611ed881611e9c565b9050919050565b7f596f7520616c72656164792068617665207374616b696e67206f6e207468617460008201527f20706572696f6400000000000000000000000000000000000000000000000000602082015250565b6000611f3b6027836118b5565b9150611f4682611edf565b604082019050919050565b60006020820190508181036000830152611f6a81611f2e565b9050919050565b7f4e487b7100000000000000000000000000000000000000000000000000000000600052601160045260246000fd5b6000611fab8261160f565b9150611fb68361160f565b9250828201905080821115611fce57611fcd611f71565b5b92915050565b7f536166654d6174683a206164646974696f6e206f766572666c6f770000000000600082015250565b600061200a601b836118b5565b915061201582611fd4565b602082019050919050565b6000602082019050818103600083015261203981611ffd565b9050919050565b600061204b8261160f565b91506120568361160f565b92508282026120648161160f565b9150828204841483151761207b5761207a611f71565b5b5092915050565b7f4e487b7100000000000000000000000000000000000000000000000000000000600052601260045260246000fd5b60006120bc8261160f565b91506120c78361160f565b9250826120d7576120d6612082565b5b828204905092915050565b7f536166654d6174683a206d756c7469706c69636174696f6e206f766572666c6f60008201527f7700000000000000000000000000000000000000000000000000000000000000602082015250565b600061213e6021836118b5565b9150612149826120e2565b604082019050919050565b6000602082019050818103600083015261216d81612131565b9050919050565b600061217f8261160f565b915061218a8361160f565b92508282039050818111156121a2576121a1611f71565b5b9291505056fea2646970667358221220149f8b9e82314d55909ceef131ff8c121bb7df759fd52cfdce8410f7d5accb7b64736f6c63430008120033",
  "linkReferences": {},
  "deployedLinkReferences": {}
}