{
  "_format": "hh-sol-artifact-1",
  "contractName": "MarshaPlus",
  "sourceName": "contracts/MarshaPlus.sol",
  "abi": [
    {
      "inputs": [],
      "stateMutability": "nonpayable",
      "type": "constructor"
    },
    {
      "anonymous": false,
      "inputs": [
        {
          "indexed": true,
          "internalType": "address",
          "name": "from",
          "type": "address"
        },
        {
          "indexed": true,
          "internalType": "address",
          "name": "to",
          "type": "address"
        },
        {
          "indexed": false,
          "internalType": "uint256",
          "name": "value",
          "type": "uint256"
        }
      ],
      "name": "Transfer",
      "type": "event"
    },
    {
      "inputs": [],
      "name": "advisor",
      "outputs": [
        {
          "internalType": "address",
          "name": "",
          "type": "address"
        }
      ],
      "stateMutability": "view",
      "type": "function"
    },
    {
      "inputs": [
        {
          "internalType": "address",
          "name": "",
          "type": "address"
        }
      ],
      "name": "balanceOf",
      "outputs": [
        {
          "internalType": "uint256",
          "name": "",
          "type": "uint256"
        }
      ],
      "stateMutability": "view",
      "type": "function"
    },
    {
      "inputs": [],
      "name": "community",
      "outputs": [
        {
          "internalType": "address",
          "name": "",
          "type": "address"
        }
      ],
      "stateMutability": "view",
      "type": "function"
    },
    {
      "inputs": [],
      "name": "decimals",
      "outputs": [
        {
          "internalType": "uint8",
          "name": "",
          "type": "uint8"
        }
      ],
      "stateMutability": "view",
      "type": "function"
    },
    {
      "inputs": [],
      "name": "developer",
      "outputs": [
        {
          "internalType": "address",
          "name": "",
          "type": "address"
        }
      ],
      "stateMutability": "view",
      "type": "function"
    },
    {
      "inputs": [],
      "name": "foundation",
      "outputs": [
        {
          "internalType": "address",
          "name": "",
          "type": "address"
        }
      ],
      "stateMutability": "view",
      "type": "function"
    },
    {
      "inputs": [],
      "name": "marketing",
      "outputs": [
        {
          "internalType": "address",
          "name": "",
          "type": "address"
        }
      ],
      "stateMutability": "view",
      "type": "function"
    },
    {
      "inputs": [],
      "name": "owner",
      "outputs": [
        {
          "internalType": "address payable",
          "name": "",
          "type": "address"
        }
      ],
      "stateMutability": "view",
      "type": "function"
    },
    {
      "inputs": [],
      "name": "stack",
      "outputs": [
        {
          "internalType": "bool",
          "name": "",
          "type": "bool"
        }
      ],
      "stateMutability": "nonpayable",
      "type": "function"
    },
    {
      "inputs": [],
      "name": "technical",
      "outputs": [
        {
          "internalType": "address",
          "name": "",
          "type": "address"
        }
      ],
      "stateMutability": "view",
      "type": "function"
    },
    {
      "inputs": [],
      "name": "token_name",
      "outputs": [
        {
          "internalType": "string",
          "name": "",
          "type": "string"
        }
      ],
      "stateMutability": "view",
      "type": "function"
    },
    {
      "inputs": [],
      "name": "token_symbol",
      "outputs": [
        {
          "internalType": "string",
          "name": "",
          "type": "string"
        }
      ],
      "stateMutability": "view",
      "type": "function"
    },
    {
      "inputs": [],
      "name": "totalSupply",
      "outputs": [
        {
          "internalType": "uint256",
          "name": "",
          "type": "uint256"
        }
      ],
      "stateMutability": "view",
      "type": "function"
    },
    {
      "inputs": [
        {
          "internalType": "address",
          "name": "_to",
          "type": "address"
        },
        {
          "internalType": "uint256",
          "name": "_value",
          "type": "uint256"
        }
      ],
      "name": "transferTo",
      "outputs": [
        {
          "internalType": "bool",
          "name": "success",
          "type": "bool"
        }
      ],
      "stateMutability": "nonpayable",
      "type": "function"
    }
  ],
  "bytecode": "0x60806040526040518060400160405280600781526020017f4d41525348412b00000000000000000000000000000000000000000000000000815250600090816200004a9190620006cc565b506040518060400160405280600381526020017f4d5241000000000000000000000000000000000000000000000000000000000081525060019081620000919190620006cc565b5060646002556012600360006101000a81548160ff021916908360ff160217905550348015620000c057600080fd5b504260048190555060646023600254620000db9190620007e2565b620000e791906200085c565b6005600073f39fd6e51aad88f6f4ce6ab8827279cfffb9226673ffffffffffffffffffffffffffffffffffffffff1673ffffffffffffffffffffffffffffffffffffffff1681526020019081526020016000208190555073f39fd6e51aad88f6f4ce6ab8827279cfffb9226673ffffffffffffffffffffffffffffffffffffffff163373ffffffffffffffffffffffffffffffffffffffff167fddf252ad1be2c89b69c2b068fc378daa952ba7f163c4a11628f55a4df523b3ef6005600073f39fd6e51aad88f6f4ce6ab8827279cfffb9226673ffffffffffffffffffffffffffffffffffffffff1673ffffffffffffffffffffffffffffffffffffffff16815260200190815260200160002054604051620002049190620008a5565b60405180910390a3606460196002546200021f9190620007e2565b6200022b91906200085c565b600560007370997970c51812dc3a010c7d01b50e0d17dc79c873ffffffffffffffffffffffffffffffffffffffff1673ffffffffffffffffffffffffffffffffffffffff1681526020019081526020016000208190555060646008600254620002959190620007e2565b620002a191906200085c565b60056000733c44cdddb6a900fa2b585dd299e03d12fa4293bc73ffffffffffffffffffffffffffffffffffffffff1673ffffffffffffffffffffffffffffffffffffffff1681526020019081526020016000208190555060146002546200030991906200085c565b600560007390f79bf6eb2c4f870365e785982e1f101e93b90673ffffffffffffffffffffffffffffffffffffffff1673ffffffffffffffffffffffffffffffffffffffff168152602001908152602001600020819055506064600a600254620003739190620007e2565b6200037f91906200085c565b600560007315d34aaf54267db7d7c367839aaf71a00a2c6a6573ffffffffffffffffffffffffffffffffffffffff1673ffffffffffffffffffffffffffffffffffffffff1681526020019081526020016000208190555060646005600254620003e99190620007e2565b620003f591906200085c565b60056000739965507d1a55bcc2695c58ba16fb37d819b0a4dc73ffffffffffffffffffffffffffffffffffffffff1673ffffffffffffffffffffffffffffffffffffffff16815260200190815260200160002081905550620008c2565b600081519050919050565b7f4e487b7100000000000000000000000000000000000000000000000000000000600052604160045260246000fd5b7f4e487b7100000000000000000000000000000000000000000000000000000000600052602260045260246000fd5b60006002820490506001821680620004d457607f821691505b602082108103620004ea57620004e96200048c565b5b50919050565b60008190508160005260206000209050919050565b60006020601f8301049050919050565b600082821b905092915050565b600060088302620005547fffffffffffffffffffffffffffffffffffffffffffffffffffffffffffffffff8262000515565b62000560868362000515565b95508019841693508086168417925050509392505050565b6000819050919050565b6000819050919050565b6000620005ad620005a7620005a18462000578565b62000582565b62000578565b9050919050565b6000819050919050565b620005c9836200058c565b620005e1620005d882620005b4565b84845462000522565b825550505050565b600090565b620005f8620005e9565b62000605818484620005be565b505050565b5b818110156200062d5762000621600082620005ee565b6001810190506200060b565b5050565b601f8211156200067c576200064681620004f0565b620006518462000505565b8101602085101562000661578190505b62000679620006708562000505565b8301826200060a565b50505b505050565b600082821c905092915050565b6000620006a16000198460080262000681565b1980831691505092915050565b6000620006bc83836200068e565b9150826002028217905092915050565b620006d78262000452565b67ffffffffffffffff811115620006f357620006f26200045d565b5b620006ff8254620004bb565b6200070c82828562000631565b600060209050601f8311600181146200074457600084156200072f578287015190505b6200073b8582620006ae565b865550620007ab565b601f1984166200075486620004f0565b60005b828110156200077e5784890151825560018201915060208501945060208101905062000757565b868310156200079e57848901516200079a601f8916826200068e565b8355505b6001600288020188555050505b505050505050565b7f4e487b7100000000000000000000000000000000000000000000000000000000600052601160045260246000fd5b6000620007ef8262000578565b9150620007fc8362000578565b92508282026200080c8162000578565b91508282048414831517620008265762000825620007b3565b5b5092915050565b7f4e487b7100000000000000000000000000000000000000000000000000000000600052601260045260246000fd5b6000620008698262000578565b9150620008768362000578565b9250826200088957620008886200082d565b5b828204905092915050565b6200089f8162000578565b82525050565b6000602082019050620008bc600083018462000894565b92915050565b6112fb80620008d26000396000f3fe608060405234801561001057600080fd5b50600436106100ea5760003560e01c806341fbb0501161008c578063947a316811610066578063947a31681461023f5780639d8a49651461025d578063ca4b208b1461027b578063dc1fb5a514610299576100ea565b806341fbb050146101d357806370a08231146101f15780638da5cb5b14610221576100ea565b80631f772a34116100c85780631f772a34146101495780632ccb1b30146101675780632d3e474a14610197578063313ce567146101b5576100ea565b8063138ef151146100ef57806318160ddd1461010d5780631936e4be1461012b575b600080fd5b6100f76102b7565b6040516101049190610c2a565b60405180910390f35b6101156102bc565b6040516101229190610c5e565b60405180910390f35b6101336102c2565b6040516101409190610cba565b60405180910390f35b6101516102da565b60405161015e9190610d65565b60405180910390f35b610181600480360381019061017c9190610de4565b610368565b60405161018e9190610c2a565b60405180910390f35b61019f61067a565b6040516101ac9190610cba565b60405180910390f35b6101bd610692565b6040516101ca9190610e40565b60405180910390f35b6101db6106a5565b6040516101e89190610cba565b60405180910390f35b61020b60048036038101906102069190610e5b565b6106bd565b6040516102189190610c5e565b60405180910390f35b6102296106d5565b6040516102369190610ea9565b60405180910390f35b6102476106fb565b6040516102549190610d65565b60405180910390f35b610265610789565b6040516102729190610cba565b60405180910390f35b6102836107a1565b6040516102909190610cba565b60405180910390f35b6102a16107b9565b6040516102ae9190610cba565b60405180910390f35b600090565b60025481565b7390f79bf6eb2c4f870365e785982e1f101e93b90681565b600180546102e790610ef3565b80601f016020809104026020016040519081016040528092919081815260200182805461031390610ef3565b80156103605780601f1061033557610100808354040283529160200191610360565b820191906000526020600020905b81548152906001019060200180831161034357829003601f168201915b505050505081565b600080600560003373ffffffffffffffffffffffffffffffffffffffff1673ffffffffffffffffffffffffffffffffffffffff1681526020019081526020016000205490506000600560008673ffffffffffffffffffffffffffffffffffffffff1673ffffffffffffffffffffffffffffffffffffffff168152602001908152602001600020549050600073ffffffffffffffffffffffffffffffffffffffff168573ffffffffffffffffffffffffffffffffffffffff1603610460576040517f08c379a000000000000000000000000000000000000000000000000000000000815260040161045790610f70565b60405180910390fd5b3373ffffffffffffffffffffffffffffffffffffffff168573ffffffffffffffffffffffffffffffffffffffff16036104ce576040517f08c379a00000000000000000000000000000000000000000000000000000000081526004016104c590610f70565b60405180910390fd5b6000841015610512576040517f08c379a000000000000000000000000000000000000000000000000000000000815260040161050990611002565b60405180910390fd5b838211610554576040517f08c379a000000000000000000000000000000000000000000000000000000000815260040161054b9061106e565b60405180910390fd5b61056784836107d190919063ffffffff16565b600560003373ffffffffffffffffffffffffffffffffffffffff1673ffffffffffffffffffffffffffffffffffffffff168152602001908152602001600020819055506105bd848261081b90919063ffffffff16565b600560008773ffffffffffffffffffffffffffffffffffffffff1673ffffffffffffffffffffffffffffffffffffffff168152602001908152602001600020819055508473ffffffffffffffffffffffffffffffffffffffff163373ffffffffffffffffffffffffffffffffffffffff167fddf252ad1be2c89b69c2b068fc378daa952ba7f163c4a11628f55a4df523b3ef8660405161065d9190610c5e565b60405180910390a361066d610879565b5060019250505092915050565b733c44cdddb6a900fa2b585dd299e03d12fa4293bc81565b600360009054906101000a900460ff1681565b7370997970c51812dc3a010c7d01b50e0d17dc79c881565b60056020528060005260406000206000915090505481565b600360019054906101000a900473ffffffffffffffffffffffffffffffffffffffff1681565b6000805461070890610ef3565b80601f016020809104026020016040519081016040528092919081815260200182805461073490610ef3565b80156107815780601f1061075657610100808354040283529160200191610781565b820191906000526020600020905b81548152906001019060200180831161076457829003601f168201915b505050505081565b739965507d1a55bcc2695c58ba16fb37d819b0a4dc81565b7315d34aaf54267db7d7c367839aaf71a00a2c6a6581565b73f39fd6e51aad88f6f4ce6ab8827279cfffb9226681565b600061081383836040518060400160405280601e81526020017f536166654d6174683a207375627472616374696f6e206f766572666c6f770000815250610a84565b905092915050565b600080828461082a91906110bd565b90508381101561086f576040517f08c379a00000000000000000000000000000000000000000000000000000000081526004016108669061113d565b60405180910390fd5b8091505092915050565b6000806108a560646108976003600254610ae890919063ffffffff16565b610b6290919063ffffffff16565b90506108bd600a60045461081b90919063ffffffff16565b4211801561091d5750806005600073f39fd6e51aad88f6f4ce6ab8827279cfffb9226673ffffffffffffffffffffffffffffffffffffffff1673ffffffffffffffffffffffffffffffffffffffff16815260200190815260200160002054115b15610a7c57610988816005600073f39fd6e51aad88f6f4ce6ab8827279cfffb9226673ffffffffffffffffffffffffffffffffffffffff1673ffffffffffffffffffffffffffffffffffffffff168152602001908152602001600020546107d190919063ffffffff16565b6005600073f39fd6e51aad88f6f4ce6ab8827279cfffb9226673ffffffffffffffffffffffffffffffffffffffff1673ffffffffffffffffffffffffffffffffffffffff168152602001908152602001600020819055506109f4816002546107d190919063ffffffff16565b600281905550600073ffffffffffffffffffffffffffffffffffffffff1673f39fd6e51aad88f6f4ce6ab8827279cfffb9226673ffffffffffffffffffffffffffffffffffffffff167fddf252ad1be2c89b69c2b068fc378daa952ba7f163c4a11628f55a4df523b3ef83604051610a6c9190610c5e565b60405180910390a3426004819055505b600191505090565b6000838311158290610acc576040517f08c379a0000000000000000000000000000000000000000000000000000000008152600401610ac39190610d65565b60405180910390fd5b5060008385610adb919061115d565b9050809150509392505050565b6000808303610afa5760009050610b5c565b60008284610b089190611191565b9050828482610b179190611202565b14610b57576040517f08c379a0000000000000000000000000000000000000000000000000000000008152600401610b4e906112a5565b60405180910390fd5b809150505b92915050565b6000610ba483836040518060400160405280601a81526020017f536166654d6174683a206469766973696f6e206279207a65726f000000000000815250610bac565b905092915050565b60008083118290610bf3576040517f08c379a0000000000000000000000000000000000000000000000000000000008152600401610bea9190610d65565b60405180910390fd5b5060008385610c029190611202565b9050809150509392505050565b60008115159050919050565b610c2481610c0f565b82525050565b6000602082019050610c3f6000830184610c1b565b92915050565b6000819050919050565b610c5881610c45565b82525050565b6000602082019050610c736000830184610c4f565b92915050565b600073ffffffffffffffffffffffffffffffffffffffff82169050919050565b6000610ca482610c79565b9050919050565b610cb481610c99565b82525050565b6000602082019050610ccf6000830184610cab565b92915050565b600081519050919050565b600082825260208201905092915050565b60005b83811015610d0f578082015181840152602081019050610cf4565b60008484015250505050565b6000601f19601f8301169050919050565b6000610d3782610cd5565b610d418185610ce0565b9350610d51818560208601610cf1565b610d5a81610d1b565b840191505092915050565b60006020820190508181036000830152610d7f8184610d2c565b905092915050565b600080fd5b610d9581610c99565b8114610da057600080fd5b50565b600081359050610db281610d8c565b92915050565b610dc181610c45565b8114610dcc57600080fd5b50565b600081359050610dde81610db8565b92915050565b60008060408385031215610dfb57610dfa610d87565b5b6000610e0985828601610da3565b9250506020610e1a85828601610dcf565b9150509250929050565b600060ff82169050919050565b610e3a81610e24565b82525050565b6000602082019050610e556000830184610e31565b92915050565b600060208284031215610e7157610e70610d87565b5b6000610e7f84828501610da3565b91505092915050565b6000610e9382610c79565b9050919050565b610ea381610e88565b82525050565b6000602082019050610ebe6000830184610e9a565b92915050565b7f4e487b7100000000000000000000000000000000000000000000000000000000600052602260045260246000fd5b60006002820490506001821680610f0b57607f821691505b602082108103610f1e57610f1d610ec4565b5b50919050565b7f5265636569766572206164647265737320696e76616c69640000000000000000600082015250565b6000610f5a601883610ce0565b9150610f6582610f24565b602082019050919050565b60006020820190508181036000830152610f8981610f4d565b9050919050565b7f56616c7565206d7573742062652067726561746572206f7220657175616c207460008201527f6f20300000000000000000000000000000000000000000000000000000000000602082015250565b6000610fec602383610ce0565b9150610ff782610f90565b604082019050919050565b6000602082019050818103600083015261101b81610fdf565b9050919050565b7f4e6f7420656e6f7567682062616c616e63650000000000000000000000000000600082015250565b6000611058601283610ce0565b915061106382611022565b602082019050919050565b600060208201905081810360008301526110878161104b565b9050919050565b7f4e487b7100000000000000000000000000000000000000000000000000000000600052601160045260246000fd5b60006110c882610c45565b91506110d383610c45565b92508282019050808211156110eb576110ea61108e565b5b92915050565b7f536166654d6174683a206164646974696f6e206f766572666c6f770000000000600082015250565b6000611127601b83610ce0565b9150611132826110f1565b602082019050919050565b600060208201905081810360008301526111568161111a565b9050919050565b600061116882610c45565b915061117383610c45565b925082820390508181111561118b5761118a61108e565b5b92915050565b600061119c82610c45565b91506111a783610c45565b92508282026111b581610c45565b915082820484148315176111cc576111cb61108e565b5b5092915050565b7f4e487b7100000000000000000000000000000000000000000000000000000000600052601260045260246000fd5b600061120d82610c45565b915061121883610c45565b925082611228576112276111d3565b5b828204905092915050565b7f536166654d6174683a206d756c7469706c69636174696f6e206f766572666c6f60008201527f7700000000000000000000000000000000000000000000000000000000000000602082015250565b600061128f602183610ce0565b915061129a82611233565b604082019050919050565b600060208201905081810360008301526112be81611282565b905091905056fea26469706673582212207cecad6f798c1f1bcb484736d8ad28ae74b7fcfcac1dfd9f75a86a44bf4ba9cf64736f6c63430008120033",
  "linkReferences": {},
  "deployedLinkReferences": {}
}