{
  "_format": "hh-sol-artifact-1",
  "contractName": "MarshaToken",
  "sourceName": "contracts/MarshaPlus.sol",
  "abi": [
    {
      "inputs": [
        {
          "internalType": "address",
          "name": "_community",
          "type": "address"
        },
        {
          "internalType": "address",
          "name": "_charity",
          "type": "address"
        },
        {
          "internalType": "address",
          "name": "_foundation",
          "type": "address"
        },
        {
          "internalType": "address",
          "name": "_development",
          "type": "address"
        },
        {
          "internalType": "address",
          "name": "_marketing",
          "type": "address"
        },
        {
          "internalType": "address",
          "name": "_investors",
          "type": "address"
        },
        {
          "internalType": "address",
          "name": "_legal",
          "type": "address"
        },
        {
          "internalType": "address",
          "name": "_expansion",
          "type": "address"
        }
      ],
      "stateMutability": "nonpayable",
      "type": "constructor"
    },
    {
      "anonymous": false,
      "inputs": [
        {
          "indexed": true,
          "internalType": "address",
          "name": "owner",
          "type": "address"
        },
        {
          "indexed": true,
          "internalType": "address",
          "name": "spender",
          "type": "address"
        },
        {
          "indexed": false,
          "internalType": "uint256",
          "name": "value",
          "type": "uint256"
        }
      ],
      "name": "Approval",
      "type": "event"
    },
    {
      "anonymous": false,
      "inputs": [
        {
          "indexed": true,
          "internalType": "address",
          "name": "from",
          "type": "address"
        },
        {
          "indexed": true,
          "internalType": "address",
          "name": "to",
          "type": "address"
        },
        {
          "indexed": false,
          "internalType": "uint256",
          "name": "value",
          "type": "uint256"
        }
      ],
      "name": "Transfer",
      "type": "event"
    },
    {
      "inputs": [],
      "name": "ANNUAL_BURN_RATE",
      "outputs": [
        {
          "internalType": "uint256",
          "name": "",
          "type": "uint256"
        }
      ],
      "stateMutability": "view",
      "type": "function"
    },
    {
      "inputs": [],
      "name": "INITIAL_SUPPLY",
      "outputs": [
        {
          "internalType": "uint256",
          "name": "",
          "type": "uint256"
        }
      ],
      "stateMutability": "view",
      "type": "function"
    },
    {
      "inputs": [
        {
          "internalType": "address",
          "name": "owner",
          "type": "address"
        },
        {
          "internalType": "address",
          "name": "spender",
          "type": "address"
        }
      ],
      "name": "allowance",
      "outputs": [
        {
          "internalType": "uint256",
          "name": "",
          "type": "uint256"
        }
      ],
      "stateMutability": "view",
      "type": "function"
    },
    {
      "inputs": [
        {
          "internalType": "address",
          "name": "spender",
          "type": "address"
        },
        {
          "internalType": "uint256",
          "name": "amount",
          "type": "uint256"
        }
      ],
      "name": "approve",
      "outputs": [
        {
          "internalType": "bool",
          "name": "",
          "type": "bool"
        }
      ],
      "stateMutability": "nonpayable",
      "type": "function"
    },
    {
      "inputs": [
        {
          "internalType": "address",
          "name": "account",
          "type": "address"
        }
      ],
      "name": "balanceOf",
      "outputs": [
        {
          "internalType": "uint256",
          "name": "",
          "type": "uint256"
        }
      ],
      "stateMutability": "view",
      "type": "function"
    },
    {
      "inputs": [],
      "name": "charity",
      "outputs": [
        {
          "internalType": "address",
          "name": "",
          "type": "address"
        }
      ],
      "stateMutability": "view",
      "type": "function"
    },
    {
      "inputs": [],
      "name": "community",
      "outputs": [
        {
          "internalType": "address",
          "name": "",
          "type": "address"
        }
      ],
      "stateMutability": "view",
      "type": "function"
    },
    {
      "inputs": [],
      "name": "decimals",
      "outputs": [
        {
          "internalType": "uint8",
          "name": "",
          "type": "uint8"
        }
      ],
      "stateMutability": "view",
      "type": "function"
    },
    {
      "inputs": [
        {
          "internalType": "address",
          "name": "spender",
          "type": "address"
        },
        {
          "internalType": "uint256",
          "name": "subtractedValue",
          "type": "uint256"
        }
      ],
      "name": "decreaseAllowance",
      "outputs": [
        {
          "internalType": "bool",
          "name": "",
          "type": "bool"
        }
      ],
      "stateMutability": "nonpayable",
      "type": "function"
    },
    {
      "inputs": [],
      "name": "development",
      "outputs": [
        {
          "internalType": "address",
          "name": "",
          "type": "address"
        }
      ],
      "stateMutability": "view",
      "type": "function"
    },
    {
      "inputs": [],
      "name": "expansion",
      "outputs": [
        {
          "internalType": "address",
          "name": "",
          "type": "address"
        }
      ],
      "stateMutability": "view",
      "type": "function"
    },
    {
      "inputs": [],
      "name": "foundation",
      "outputs": [
        {
          "internalType": "address",
          "name": "",
          "type": "address"
        }
      ],
      "stateMutability": "view",
      "type": "function"
    },
    {
      "inputs": [
        {
          "internalType": "address",
          "name": "spender",
          "type": "address"
        },
        {
          "internalType": "uint256",
          "name": "addedValue",
          "type": "uint256"
        }
      ],
      "name": "increaseAllowance",
      "outputs": [
        {
          "internalType": "bool",
          "name": "",
          "type": "bool"
        }
      ],
      "stateMutability": "nonpayable",
      "type": "function"
    },
    {
      "inputs": [],
      "name": "investors",
      "outputs": [
        {
          "internalType": "address",
          "name": "",
          "type": "address"
        }
      ],
      "stateMutability": "view",
      "type": "function"
    },
    {
      "inputs": [],
      "name": "lastBurnTimestamp",
      "outputs": [
        {
          "internalType": "uint256",
          "name": "",
          "type": "uint256"
        }
      ],
      "stateMutability": "view",
      "type": "function"
    },
    {
      "inputs": [],
      "name": "legal",
      "outputs": [
        {
          "internalType": "address",
          "name": "",
          "type": "address"
        }
      ],
      "stateMutability": "view",
      "type": "function"
    },
    {
      "inputs": [],
      "name": "marketing",
      "outputs": [
        {
          "internalType": "address",
          "name": "",
          "type": "address"
        }
      ],
      "stateMutability": "view",
      "type": "function"
    },
    {
      "inputs": [],
      "name": "name",
      "outputs": [
        {
          "internalType": "string",
          "name": "",
          "type": "string"
        }
      ],
      "stateMutability": "view",
      "type": "function"
    },
    {
      "inputs": [],
      "name": "symbol",
      "outputs": [
        {
          "internalType": "string",
          "name": "",
          "type": "string"
        }
      ],
      "stateMutability": "view",
      "type": "function"
    },
    {
      "inputs": [],
      "name": "timeOfContractCreation",
      "outputs": [
        {
          "internalType": "uint256",
          "name": "",
          "type": "uint256"
        }
      ],
      "stateMutability": "view",
      "type": "function"
    },
    {
      "inputs": [],
      "name": "totalSupply",
      "outputs": [
        {
          "internalType": "uint256",
          "name": "",
          "type": "uint256"
        }
      ],
      "stateMutability": "view",
      "type": "function"
    },
    {
      "inputs": [
        {
          "internalType": "address",
          "name": "recipient",
          "type": "address"
        },
        {
          "internalType": "uint256",
          "name": "amount",
          "type": "uint256"
        }
      ],
      "name": "transfer",
      "outputs": [
        {
          "internalType": "bool",
          "name": "",
          "type": "bool"
        }
      ],
      "stateMutability": "nonpayable",
      "type": "function"
    },
    {
      "inputs": [
        {
          "internalType": "address",
          "name": "sender",
          "type": "address"
        },
        {
          "internalType": "address",
          "name": "recipient",
          "type": "address"
        },
        {
          "internalType": "uint256",
          "name": "amount",
          "type": "uint256"
        }
      ],
      "name": "transferFrom",
      "outputs": [
        {
          "internalType": "bool",
          "name": "",
          "type": "bool"
        }
      ],
      "stateMutability": "nonpayable",
      "type": "function"
    }
  ],
  "bytecode": "0x60806040523480156200001157600080fd5b5060405162002f0d38038062002f0d833981810160405281019062000037919062000af5565b6040518060400160405280600781526020017f4d41525348412b000000000000000000000000000000000000000000000000008152506040518060400160405280600381526020017f4d534100000000000000000000000000000000000000000000000000000000008152508160039081620000b4919062000e38565b508060049081620000c6919062000e38565b50505087600760006101000a81548173ffffffffffffffffffffffffffffffffffffffff021916908373ffffffffffffffffffffffffffffffffffffffff16021790555086600860006101000a81548173ffffffffffffffffffffffffffffffffffffffff021916908373ffffffffffffffffffffffffffffffffffffffff16021790555085600960006101000a81548173ffffffffffffffffffffffffffffffffffffffff021916908373ffffffffffffffffffffffffffffffffffffffff16021790555084600a60006101000a81548173ffffffffffffffffffffffffffffffffffffffff021916908373ffffffffffffffffffffffffffffffffffffffff16021790555083600b60006101000a81548173ffffffffffffffffffffffffffffffffffffffff021916908373ffffffffffffffffffffffffffffffffffffffff16021790555082600c60006101000a81548173ffffffffffffffffffffffffffffffffffffffff021916908373ffffffffffffffffffffffffffffffffffffffff16021790555081600d60006101000a81548173ffffffffffffffffffffffffffffffffffffffff021916908373ffffffffffffffffffffffffffffffffffffffff16021790555080600e60006101000a81548173ffffffffffffffffffffffffffffffffffffffff021916908373ffffffffffffffffffffffffffffffffffffffff1602179055504260058190555042600681905550620002fd306b19d971e4fe8401e7400000006200063b60201b60201c565b6200035a30600760009054906101000a900473ffffffffffffffffffffffffffffffffffffffff16606460236b19d971e4fe8401e74000000062000342919062000f4e565b6200034e919062000fc8565b620007a860201b60201c565b60026200038f600760009054906101000a900473ffffffffffffffffffffffffffffffffffffffff1662000a3960201b60201c565b6200039b919062000fc8565b600f81905550620003fe30600860009054906101000a900473ffffffffffffffffffffffffffffffffffffffff16606460056b19d971e4fe8401e740000000620003e6919062000f4e565b620003f2919062000fc8565b620007a860201b60201c565b6200045b30600960009054906101000a900473ffffffffffffffffffffffffffffffffffffffff16606460056b19d971e4fe8401e74000000062000443919062000f4e565b6200044f919062000fc8565b620007a860201b60201c565b620004b830600a60009054906101000a900473ffffffffffffffffffffffffffffffffffffffff16606460056b19d971e4fe8401e740000000620004a0919062000f4e565b620004ac919062000fc8565b620007a860201b60201c565b6200051530600b60009054906101000a900473ffffffffffffffffffffffffffffffffffffffff16606460056b19d971e4fe8401e740000000620004fd919062000f4e565b62000509919062000fc8565b620007a860201b60201c565b6200057230600c60009054906101000a900473ffffffffffffffffffffffffffffffffffffffff16606460056b19d971e4fe8401e7400000006200055a919062000f4e565b62000566919062000fc8565b620007a860201b60201c565b620005d030600d60009054906101000a900473ffffffffffffffffffffffffffffffffffffffff166103e860196b19d971e4fe8401e740000000620005b8919062000f4e565b620005c4919062000fc8565b620007a860201b60201c565b6200062d30600e60009054906101000a900473ffffffffffffffffffffffffffffffffffffffff16606460016b19d971e4fe8401e74000000062000615919062000f4e565b62000621919062000fc8565b620007a860201b60201c565b5050505050505050620012b4565b600073ffffffffffffffffffffffffffffffffffffffff168273ffffffffffffffffffffffffffffffffffffffff1603620006ad576040517f08c379a0000000000000000000000000000000000000000000000000000000008152600401620006a49062001061565b60405180910390fd5b620006c16000838362000a8160201b60201c565b8060026000828254620006d5919062001083565b92505081905550806000808473ffffffffffffffffffffffffffffffffffffffff1673ffffffffffffffffffffffffffffffffffffffff168152602001908152602001600020600082825401925050819055508173ffffffffffffffffffffffffffffffffffffffff16600073ffffffffffffffffffffffffffffffffffffffff167fddf252ad1be2c89b69c2b068fc378daa952ba7f163c4a11628f55a4df523b3ef83604051620007889190620010cf565b60405180910390a3620007a46000838362000a8660201b60201c565b5050565b600073ffffffffffffffffffffffffffffffffffffffff168373ffffffffffffffffffffffffffffffffffffffff16036200081a576040517f08c379a0000000000000000000000000000000000000000000000000000000008152600401620008119062001162565b60405180910390fd5b600073ffffffffffffffffffffffffffffffffffffffff168273ffffffffffffffffffffffffffffffffffffffff16036200088c576040517f08c379a00000000000000000000000000000000000000000000000000000000081526004016200088390620011fa565b60405180910390fd5b6200089f83838362000a8160201b60201c565b60008060008573ffffffffffffffffffffffffffffffffffffffff1673ffffffffffffffffffffffffffffffffffffffff1681526020019081526020016000205490508181101562000928576040517f08c379a00000000000000000000000000000000000000000000000000000000081526004016200091f9062001292565b60405180910390fd5b8181036000808673ffffffffffffffffffffffffffffffffffffffff1673ffffffffffffffffffffffffffffffffffffffff16815260200190815260200160002081905550816000808573ffffffffffffffffffffffffffffffffffffffff1673ffffffffffffffffffffffffffffffffffffffff168152602001908152602001600020600082825401925050819055508273ffffffffffffffffffffffffffffffffffffffff168473ffffffffffffffffffffffffffffffffffffffff167fddf252ad1be2c89b69c2b068fc378daa952ba7f163c4a11628f55a4df523b3ef8460405162000a189190620010cf565b60405180910390a362000a3384848462000a8660201b60201c565b50505050565b60008060008373ffffffffffffffffffffffffffffffffffffffff1673ffffffffffffffffffffffffffffffffffffffff168152602001908152602001600020549050919050565b505050565b505050565b600080fd5b600073ffffffffffffffffffffffffffffffffffffffff82169050919050565b600062000abd8262000a90565b9050919050565b62000acf8162000ab0565b811462000adb57600080fd5b50565b60008151905062000aef8162000ac4565b92915050565b600080600080600080600080610100898b03121562000b195762000b1862000a8b565b5b600062000b298b828c0162000ade565b985050602062000b3c8b828c0162000ade565b975050604062000b4f8b828c0162000ade565b965050606062000b628b828c0162000ade565b955050608062000b758b828c0162000ade565b94505060a062000b888b828c0162000ade565b93505060c062000b9b8b828c0162000ade565b92505060e062000bae8b828c0162000ade565b9150509295985092959890939650565b600081519050919050565b7f4e487b7100000000000000000000000000000000000000000000000000000000600052604160045260246000fd5b7f4e487b7100000000000000000000000000000000000000000000000000000000600052602260045260246000fd5b6000600282049050600182168062000c4057607f821691505b60208210810362000c565762000c5562000bf8565b5b50919050565b60008190508160005260206000209050919050565b60006020601f8301049050919050565b600082821b905092915050565b60006008830262000cc07fffffffffffffffffffffffffffffffffffffffffffffffffffffffffffffffff8262000c81565b62000ccc868362000c81565b95508019841693508086168417925050509392505050565b6000819050919050565b6000819050919050565b600062000d1962000d1362000d0d8462000ce4565b62000cee565b62000ce4565b9050919050565b6000819050919050565b62000d358362000cf8565b62000d4d62000d448262000d20565b84845462000c8e565b825550505050565b600090565b62000d6462000d55565b62000d7181848462000d2a565b505050565b5b8181101562000d995762000d8d60008262000d5a565b60018101905062000d77565b5050565b601f82111562000de85762000db28162000c5c565b62000dbd8462000c71565b8101602085101562000dcd578190505b62000de562000ddc8562000c71565b83018262000d76565b50505b505050565b600082821c905092915050565b600062000e0d6000198460080262000ded565b1980831691505092915050565b600062000e28838362000dfa565b9150826002028217905092915050565b62000e438262000bbe565b67ffffffffffffffff81111562000e5f5762000e5e62000bc9565b5b62000e6b825462000c27565b62000e7882828562000d9d565b600060209050601f83116001811462000eb0576000841562000e9b578287015190505b62000ea7858262000e1a565b86555062000f17565b601f19841662000ec08662000c5c565b60005b8281101562000eea5784890151825560018201915060208501945060208101905062000ec3565b8683101562000f0a578489015162000f06601f89168262000dfa565b8355505b6001600288020188555050505b505050505050565b7f4e487b7100000000000000000000000000000000000000000000000000000000600052601160045260246000fd5b600062000f5b8262000ce4565b915062000f688362000ce4565b925082820262000f788162000ce4565b9150828204841483151762000f925762000f9162000f1f565b5b5092915050565b7f4e487b7100000000000000000000000000000000000000000000000000000000600052601260045260246000fd5b600062000fd58262000ce4565b915062000fe28362000ce4565b92508262000ff55762000ff462000f99565b5b828204905092915050565b600082825260208201905092915050565b7f45524332303a206d696e7420746f20746865207a65726f206164647265737300600082015250565b600062001049601f8362001000565b9150620010568262001011565b602082019050919050565b600060208201905081810360008301526200107c816200103a565b9050919050565b6000620010908262000ce4565b91506200109d8362000ce4565b9250828201905080821115620010b857620010b762000f1f565b5b92915050565b620010c98162000ce4565b82525050565b6000602082019050620010e66000830184620010be565b92915050565b7f45524332303a207472616e736665722066726f6d20746865207a65726f20616460008201527f6472657373000000000000000000000000000000000000000000000000000000602082015250565b60006200114a60258362001000565b91506200115782620010ec565b604082019050919050565b600060208201905081810360008301526200117d816200113b565b9050919050565b7f45524332303a207472616e7366657220746f20746865207a65726f206164647260008201527f6573730000000000000000000000000000000000000000000000000000000000602082015250565b6000620011e260238362001000565b9150620011ef8262001184565b604082019050919050565b600060208201905081810360008301526200121581620011d3565b9050919050565b7f45524332303a207472616e7366657220616d6f756e742065786365656473206260008201527f616c616e63650000000000000000000000000000000000000000000000000000602082015250565b60006200127a60268362001000565b915062001287826200121c565b604082019050919050565b60006020820190508181036000830152620012ad816200126b565b9050919050565b611c4980620012c46000396000f3fe608060405234801561001057600080fd5b506004361061014d5760003560e01c806370a08231116100c3578063a457c2d71161007c578063a457c2d714610398578063a9059cbb146103c8578063ae15a8f6146103f8578063dc1fb5a514610416578063dd62ed3e14610434578063e377ac31146104645761014d565b806370a08231146102d25780637b929c27146103025780637fce0203146103205780638ac27f5f1461033e578063934aa0231461035c57806395d89b411461037a5761014d565b80632ff2e9dc116101155780632ff2e9dc1461020c578063313ce5671461022a57806339509351146102485780633d3d937d1461027857806341fbb0501461029657806367fea82e146102b45761014d565b806306fdde0314610152578063095ea7b31461017057806318160ddd146101a057806323b872dd146101be5780632d3e474a146101ee575b600080fd5b61015a610482565b6040516101679190611336565b60405180910390f35b61018a600480360381019061018591906113f1565b610514565b604051610197919061144c565b60405180910390f35b6101a8610537565b6040516101b59190611476565b60405180910390f35b6101d860048036038101906101d39190611491565b610541565b6040516101e5919061144c565b60405180910390f35b6101f661056a565b60405161020391906114f3565b60405180910390f35b610214610590565b6040516102219190611476565b60405180910390f35b6102326105a0565b60405161023f919061152a565b60405180910390f35b610262600480360381019061025d91906113f1565b6105a9565b60405161026f919061144c565b60405180910390f35b6102806105e0565b60405161028d9190611476565b60405180910390f35b61029e6105e6565b6040516102ab91906114f3565b60405180910390f35b6102bc61060c565b6040516102c99190611476565b60405180910390f35b6102ec60048036038101906102e79190611545565b610612565b6040516102f99190611476565b60405180910390f35b61030a61065a565b60405161031791906114f3565b60405180910390f35b610328610680565b60405161033591906114f3565b60405180910390f35b6103466106a6565b60405161035391906114f3565b60405180910390f35b6103646106cc565b60405161037191906114f3565b60405180910390f35b6103826106f2565b60405161038f9190611336565b60405180910390f35b6103b260048036038101906103ad91906113f1565b610784565b6040516103bf919061144c565b60405180910390f35b6103e260048036038101906103dd91906113f1565b6107fb565b6040516103ef919061144c565b60405180910390f35b610400610822565b60405161040d9190611476565b60405180910390f35b61041e610827565b60405161042b91906114f3565b60405180910390f35b61044e60048036038101906104499190611572565b61084d565b60405161045b9190611476565b60405180910390f35b61046c6108d4565b60405161047991906114f3565b60405180910390f35b606060038054610491906115e1565b80601f01602080910402602001604051908101604052809291908181526020018280546104bd906115e1565b801561050a5780601f106104df5761010080835404028352916020019161050a565b820191906000526020600020905b8154815290600101906020018083116104ed57829003601f168201915b5050505050905090565b60008061051f6108fa565b905061052c818585610902565b600191505092915050565b6000600254905090565b600061054b610acb565b610553610b79565b61055e848484610d7b565b50600190509392505050565b600b60009054906101000a900473ffffffffffffffffffffffffffffffffffffffff1681565b6b19d971e4fe8401e74000000081565b60006012905090565b6000806105b46108fa565b90506105d58185856105c6858961084d565b6105d09190611641565b610902565b600191505092915050565b60055481565b600960009054906101000a900473ffffffffffffffffffffffffffffffffffffffff1681565b60065481565b60008060008373ffffffffffffffffffffffffffffffffffffffff1673ffffffffffffffffffffffffffffffffffffffff168152602001908152602001600020549050919050565b600a60009054906101000a900473ffffffffffffffffffffffffffffffffffffffff1681565b600e60009054906101000a900473ffffffffffffffffffffffffffffffffffffffff1681565b600c60009054906101000a900473ffffffffffffffffffffffffffffffffffffffff1681565b600860009054906101000a900473ffffffffffffffffffffffffffffffffffffffff1681565b606060048054610701906115e1565b80601f016020809104026020016040519081016040528092919081815260200182805461072d906115e1565b801561077a5780601f1061074f5761010080835404028352916020019161077a565b820191906000526020600020905b81548152906001019060200180831161075d57829003601f168201915b5050505050905090565b60008061078f6108fa565b9050600061079d828661084d565b9050838110156107e2576040517f08c379a00000000000000000000000000000000000000000000000000000000081526004016107d9906116e7565b60405180910390fd5b6107ef8286868403610902565b60019250505092915050565b6000610805610acb565b61080d610b79565b6108178383610daa565b506001905092915050565b600381565b600760009054906101000a900473ffffffffffffffffffffffffffffffffffffffff1681565b6000600160008473ffffffffffffffffffffffffffffffffffffffff1673ffffffffffffffffffffffffffffffffffffffff16815260200190815260200160002060008373ffffffffffffffffffffffffffffffffffffffff1673ffffffffffffffffffffffffffffffffffffffff16815260200190815260200160002054905092915050565b600d60009054906101000a900473ffffffffffffffffffffffffffffffffffffffff1681565b600033905090565b600073ffffffffffffffffffffffffffffffffffffffff168373ffffffffffffffffffffffffffffffffffffffff1603610971576040517f08c379a000000000000000000000000000000000000000000000000000000000815260040161096890611779565b60405180910390fd5b600073ffffffffffffffffffffffffffffffffffffffff168273ffffffffffffffffffffffffffffffffffffffff16036109e0576040517f08c379a00000000000000000000000000000000000000000000000000000000081526004016109d79061180b565b60405180910390fd5b80600160008573ffffffffffffffffffffffffffffffffffffffff1673ffffffffffffffffffffffffffffffffffffffff16815260200190815260200160002060008473ffffffffffffffffffffffffffffffffffffffff1673ffffffffffffffffffffffffffffffffffffffff168152602001908152602001600020819055508173ffffffffffffffffffffffffffffffffffffffff168373ffffffffffffffffffffffffffffffffffffffff167f8c5be1e5ebec7d5bd14f71427d1e84f3dd0314c0f7b2291e5b200ac8c7c3b92583604051610abe9190611476565b60405180910390a3505050565b6301e13380600554610add9190611641565b4210610b77576000610aed610537565b905060006064600383610b00919061182b565b610b0a919061189c565b9050600f54610b3a600760009054906101000a900473ffffffffffffffffffffffffffffffffffffffff16610612565b1115610b6d57610b6c600760009054906101000a900473ffffffffffffffffffffffffffffffffffffffff1682610dcd565b5b4260058190555050505b565b6305a39a80600654610b8b9190611641565b4210610d7957610be230600860009054906101000a900473ffffffffffffffffffffffffffffffffffffffff16606460146b19d971e4fe8401e740000000610bd3919061182b565b610bdd919061189c565b610f9a565b610c3330600960009054906101000a900473ffffffffffffffffffffffffffffffffffffffff16606460056b19d971e4fe8401e740000000610c24919061182b565b610c2e919061189c565b610f9a565b610c8430600a60009054906101000a900473ffffffffffffffffffffffffffffffffffffffff16606460056b19d971e4fe8401e740000000610c75919061182b565b610c7f919061189c565b610f9a565b610cd530600b60009054906101000a900473ffffffffffffffffffffffffffffffffffffffff16606460036b19d971e4fe8401e740000000610cc6919061182b565b610cd0919061189c565b610f9a565b610d2730600d60009054906101000a900473ffffffffffffffffffffffffffffffffffffffff166103e860196b19d971e4fe8401e740000000610d18919061182b565b610d22919061189c565b610f9a565b610d7830600e60009054906101000a900473ffffffffffffffffffffffffffffffffffffffff16606460016b19d971e4fe8401e740000000610d69919061182b565b610d73919061189c565b610f9a565b5b565b600080610d866108fa565b9050610d93858285611210565b610d9e858585610f9a565b60019150509392505050565b600080610db56108fa565b9050610dc2818585610f9a565b600191505092915050565b600073ffffffffffffffffffffffffffffffffffffffff168273ffffffffffffffffffffffffffffffffffffffff1603610e3c576040517f08c379a0000000000000000000000000000000000000000000000000000000008152600401610e339061193f565b60405180910390fd5b610e488260008361129c565b60008060008473ffffffffffffffffffffffffffffffffffffffff1673ffffffffffffffffffffffffffffffffffffffff16815260200190815260200160002054905081811015610ece576040517f08c379a0000000000000000000000000000000000000000000000000000000008152600401610ec5906119d1565b60405180910390fd5b8181036000808573ffffffffffffffffffffffffffffffffffffffff1673ffffffffffffffffffffffffffffffffffffffff1681526020019081526020016000208190555081600260008282540392505081905550600073ffffffffffffffffffffffffffffffffffffffff168373ffffffffffffffffffffffffffffffffffffffff167fddf252ad1be2c89b69c2b068fc378daa952ba7f163c4a11628f55a4df523b3ef84604051610f819190611476565b60405180910390a3610f95836000846112a1565b505050565b600073ffffffffffffffffffffffffffffffffffffffff168373ffffffffffffffffffffffffffffffffffffffff1603611009576040517f08c379a000000000000000000000000000000000000000000000000000000000815260040161100090611a63565b60405180910390fd5b600073ffffffffffffffffffffffffffffffffffffffff168273ffffffffffffffffffffffffffffffffffffffff1603611078576040517f08c379a000000000000000000000000000000000000000000000000000000000815260040161106f90611af5565b60405180910390fd5b61108383838361129c565b60008060008573ffffffffffffffffffffffffffffffffffffffff1673ffffffffffffffffffffffffffffffffffffffff16815260200190815260200160002054905081811015611109576040517f08c379a000000000000000000000000000000000000000000000000000000000815260040161110090611b87565b60405180910390fd5b8181036000808673ffffffffffffffffffffffffffffffffffffffff1673ffffffffffffffffffffffffffffffffffffffff16815260200190815260200160002081905550816000808573ffffffffffffffffffffffffffffffffffffffff1673ffffffffffffffffffffffffffffffffffffffff168152602001908152602001600020600082825401925050819055508273ffffffffffffffffffffffffffffffffffffffff168473ffffffffffffffffffffffffffffffffffffffff167fddf252ad1be2c89b69c2b068fc378daa952ba7f163c4a11628f55a4df523b3ef846040516111f79190611476565b60405180910390a361120a8484846112a1565b50505050565b600061121c848461084d565b90507fffffffffffffffffffffffffffffffffffffffffffffffffffffffffffffffff81146112965781811015611288576040517f08c379a000000000000000000000000000000000000000000000000000000000815260040161127f90611bf3565b60405180910390fd5b6112958484848403610902565b5b50505050565b505050565b505050565b600081519050919050565b600082825260208201905092915050565b60005b838110156112e05780820151818401526020810190506112c5565b60008484015250505050565b6000601f19601f8301169050919050565b6000611308826112a6565b61131281856112b1565b93506113228185602086016112c2565b61132b816112ec565b840191505092915050565b6000602082019050818103600083015261135081846112fd565b905092915050565b600080fd5b600073ffffffffffffffffffffffffffffffffffffffff82169050919050565b60006113888261135d565b9050919050565b6113988161137d565b81146113a357600080fd5b50565b6000813590506113b58161138f565b92915050565b6000819050919050565b6113ce816113bb565b81146113d957600080fd5b50565b6000813590506113eb816113c5565b92915050565b6000806040838503121561140857611407611358565b5b6000611416858286016113a6565b9250506020611427858286016113dc565b9150509250929050565b60008115159050919050565b61144681611431565b82525050565b6000602082019050611461600083018461143d565b92915050565b611470816113bb565b82525050565b600060208201905061148b6000830184611467565b92915050565b6000806000606084860312156114aa576114a9611358565b5b60006114b8868287016113a6565b93505060206114c9868287016113a6565b92505060406114da868287016113dc565b9150509250925092565b6114ed8161137d565b82525050565b600060208201905061150860008301846114e4565b92915050565b600060ff82169050919050565b6115248161150e565b82525050565b600060208201905061153f600083018461151b565b92915050565b60006020828403121561155b5761155a611358565b5b6000611569848285016113a6565b91505092915050565b6000806040838503121561158957611588611358565b5b6000611597858286016113a6565b92505060206115a8858286016113a6565b9150509250929050565b7f4e487b7100000000000000000000000000000000000000000000000000000000600052602260045260246000fd5b600060028204905060018216806115f957607f821691505b60208210810361160c5761160b6115b2565b5b50919050565b7f4e487b7100000000000000000000000000000000000000000000000000000000600052601160045260246000fd5b600061164c826113bb565b9150611657836113bb565b925082820190508082111561166f5761166e611612565b5b92915050565b7f45524332303a2064656372656173656420616c6c6f77616e63652062656c6f7760008201527f207a65726f000000000000000000000000000000000000000000000000000000602082015250565b60006116d16025836112b1565b91506116dc82611675565b604082019050919050565b60006020820190508181036000830152611700816116c4565b9050919050565b7f45524332303a20617070726f76652066726f6d20746865207a65726f2061646460008201527f7265737300000000000000000000000000000000000000000000000000000000602082015250565b60006117636024836112b1565b915061176e82611707565b604082019050919050565b6000602082019050818103600083015261179281611756565b9050919050565b7f45524332303a20617070726f766520746f20746865207a65726f20616464726560008201527f7373000000000000000000000000000000000000000000000000000000000000602082015250565b60006117f56022836112b1565b915061180082611799565b604082019050919050565b60006020820190508181036000830152611824816117e8565b9050919050565b6000611836826113bb565b9150611841836113bb565b925082820261184f816113bb565b9150828204841483151761186657611865611612565b5b5092915050565b7f4e487b7100000000000000000000000000000000000000000000000000000000600052601260045260246000fd5b60006118a7826113bb565b91506118b2836113bb565b9250826118c2576118c161186d565b5b828204905092915050565b7f45524332303a206275726e2066726f6d20746865207a65726f2061646472657360008201527f7300000000000000000000000000000000000000000000000000000000000000602082015250565b60006119296021836112b1565b9150611934826118cd565b604082019050919050565b600060208201905081810360008301526119588161191c565b9050919050565b7f45524332303a206275726e20616d6f756e7420657863656564732062616c616e60008201527f6365000000000000000000000000000000000000000000000000000000000000602082015250565b60006119bb6022836112b1565b91506119c68261195f565b604082019050919050565b600060208201905081810360008301526119ea816119ae565b9050919050565b7f45524332303a207472616e736665722066726f6d20746865207a65726f20616460008201527f6472657373000000000000000000000000000000000000000000000000000000602082015250565b6000611a4d6025836112b1565b9150611a58826119f1565b604082019050919050565b60006020820190508181036000830152611a7c81611a40565b9050919050565b7f45524332303a207472616e7366657220746f20746865207a65726f206164647260008201527f6573730000000000000000000000000000000000000000000000000000000000602082015250565b6000611adf6023836112b1565b9150611aea82611a83565b604082019050919050565b60006020820190508181036000830152611b0e81611ad2565b9050919050565b7f45524332303a207472616e7366657220616d6f756e742065786365656473206260008201527f616c616e63650000000000000000000000000000000000000000000000000000602082015250565b6000611b716026836112b1565b9150611b7c82611b15565b604082019050919050565b60006020820190508181036000830152611ba081611b64565b9050919050565b7f45524332303a20696e73756666696369656e7420616c6c6f77616e6365000000600082015250565b6000611bdd601d836112b1565b9150611be882611ba7565b602082019050919050565b60006020820190508181036000830152611c0c81611bd0565b905091905056fea264697066735822122094002021fc9d310dd4ed54be30bcc0a5793c63f8d335f67ed3175451b70d19ad64736f6c63430008120033",
  "linkReferences": {},
  "deployedLinkReferences": {}
}